:100000001FC039C038C037C036C035C034C033C057
:1000100032C031C030C02FC02EC043C42CC02BC052
:100020002AC029C03FC327C026C025C024C023C082
:1000300022C021C06364696E6F70737578585B006D
:1000400011241FBECFEFD4E0DEBFCDBF11E0A0E092
:10005000B1E0E0E2F5E102C005900D92A435B107F0
:10006000D9F711E0A4E5B1E001C01D92A23FB107AC
:10007000E1F77CD053CAC4CF80E680937C00109215
:100080007B00EAE7F0E087EA8083808180648083F8
:10009000209A2898089590917900809155018F5F5A
:1000A00080935501843658F085E6809355019C373E
:1000B00010F480E00895983810F481E0089582E00B
:1000C0000895809154018F5F8093540164D38130EF
:1000D00089F0813088F0823019F0833011F517C033
:1000E00080915401823010F4289A08958A3060F487
:1000F00028980895289A08C0809154018A3088F081
:1001000085B191E0892785B91092540108958091B5
:100110005401882331F085B191E0892785B9109287
:100120005401089518D480E090E065E070E04AE55D
:1001300051E012D480915A018F3FA1F481E0809365
:100140005A0195E390935B0180E780935C01909363
:100150005D0180935E0180E090E065E070E04AE53B
:1001600051E018D46CD2C8D287DF08952F923F9205
:100170004F925F926F927F928F929F92AF92BF92B7
:10018000CF92DF92EF92FF920F931F93DF93CF9363
:1001900000D000D000D0CDB7DEB786E491E09093D8
:1001A000EF018093EE01BEDF1A8219821C821B824E
:1001B00083B7817F83BF78946FE5C62E61E0D62E2A
:1001C0005EE0A52E51E0B52E4AE3642E41E0742E88
:1001D00033E4E32E31E0F32E28E0422E21E0522ECC
:1001E0009CE5892E91E0992E00E411E081E0282E13
:1001F000312C2FE531E03E832D8304C08FE591E063
:100200009E838D8383B7816083BF889583B78E7FFC
:1002100083BF41DF882309F411D3809181018823B2
:1002200089F325D28A3031F08D3021F0883031F3D6
:1002300090E004C0AD81BE811C9291E0ED81FE8111
:100240008193FE83ED839923E9F2A5D2813021F0D9
:10025000823009F075C15CC180915F018F3609F46D
:1002600094C08037C0F4873509F4CBC1883550F489
:10027000823509F414C1863509F4A7C1873409F021
:10028000CBC11DC18A3509F4D5C08D3601F1893540
:1002900009F0C2C1A9C0853709F4B3C1863750F44B
:1002A000823709F499C0833709F45FC0803709F0B9
:1002B000B3C183C1873709F441C0873708F47FC0D1
:1002C000893709F4A4C08A3709F0A6C1C6C0EDB7C2
:1002D000FEB738970FB6F894FEBF0FBEEDBF31964C
:1002E000ADB7BEB71296DC92CE92119720E031E006
:1002F0003383228383E090E08C0F9D1F958384835A
:10030000A1E0B0E0AC0FBD1FB783A68376D3EDB7F5
:10031000FEB738960FB6F894FEBF0FBEEDBF823021
:10032000910509F06EC181E06B8138D2882349F0D4
:1003300082E0698133D2882321F03FC18AD28823A9
:1003400031F400D0EDB7FEB7F282E18261C100D096
:1003500000D0EDB7FEB73196ADB7BEB712965C923E
:100360004E9211978091E80162C189B1847000D0EA
:1003700000D0EDB7FEB73196ADB7BEB712965C921E
:100380004E9211978695869552C100D000D000D02C
:10039000EDB7FEB73196ADB7BEB71296BC92AE922E
:1003A0001197138212821582148215D3EDB7FEB70E
:1003B00036960FB6F894FEBF0FBEEDBF1ACF6BDEB8
:1003C00000D000D0EDB7FEB73196ADB7BEB71296EC
:1003D0005C924E9211972BC181E060E0DFD182E008
:1003E00060E0DCD1CBD1DCC000D000D000D0EDB7D4
:1003F000FEB73196ADB7BEB71296DC92CE9211978A
:1004000027E131E0338322838BE591E038C000D0CF
:1004100000D000D0EDB7FEB73196ADB7BEB712969B
:10042000DC92CE9211972CE131E0338322839582C6
:10043000848227C000D000D000D0EDB7FEB731963F
:10044000ADB7BEB71296DC92CE92119721E231E0A1
:10045000338322838DE591E012C000D000D000D01C
:10046000EDB7FEB73196ADB7BEB71296DC92CE921D
:10047000119726E231E0338322838EE591E0958364
:100480008483BBD2ADB7BEB716960FB6F894BEBF85
:100490000FBEADBF8130910509F0B3C081C000D05F
:1004A000EDB7FEB71283018396D20F900F9080E0D4
:1004B00090E065E070E04AE551E06CD29ACE2DB74D
:1004C0003EB72A5030400FB6F8943EBF0FBE2DBF46
:1004D000EDB7FEB731962BE231E0ADB7BEB712965D
:1004E0003C932E93119780915B01828313828091BC
:1004F0005C018483158280915D01868317828091DF
:100500005E018087118667D28DB79EB70A9673C049
:1005100080915F018F3609F474C0803718F48735F5
:10052000C9F408C0853749F0863768F1883708F480
:1005300068C031C081E013D140C080E010D130C02C
:1005400080915F018F3609F45CC08037C0F4873535
:1005500009F457C0883548F4823509F452C086350D
:10056000A1F1873409F058C04CC0893508F454C053
:100570008B3508F446C08D3609F04EC042C088372E
:1005800050F48537F0F5823789F08337D1F1803721
:1005900009F042C005C0982F99579230E8F531C054
:1005A00000D0EDB7FEB71283018332C081E060E076
:1005B000F5D082E060E0F2D0E1D000D0ADB7BEB7B8
:1005C00012961C930E93119723C000D000D000D038
:1005D000EDB7FEB73196ADB7BEB71296BC92AE92EC
:1005E00011973382228222E030E035832483F3D1D5
:1005F0008DB79EB706960FB6F8949EBF0FBE8DBFFF
:10060000F8CD00D0ADB7BEB71296FC92EE9211971E
:10061000E2D10F900F90EDCD00D000D0EDB7FEB736
:100620003196ADB7BEB712967C926E9211978283C7
:100630001382D1D10F900F900F900F90DACD1092BE
:10064000C50087E68093C40082E08093C00088E9FB
:100650008093C10086E08093C20008959091C0000D
:1006600095FFFCCF8093C60081E090E00895209133
:100670008101222311F480E0089590918201E92FF5
:10068000F0E0ED57FE4F80819F5F909382012150F3
:1006900020938101953610F0109282010895E7DFD2
:1006A00090E008951F920F920FB60F9211242F938E
:1006B0008F939F93EF93FF932091C600222391F095
:1006C00090918101943670F480918201890F843673
:1006D00008F08456E82FF0E0ED57FE4F20839F5F2F
:1006E00090938101FF91EF919F918F912F910F90A6
:1006F0000FBE0F901F90189582E88093800089E1CB
:10070000809381008EED90E0909387008093860027
:1007100085E090E0909389008093880081E0809349
:100720006F0023EA24BD85BD17BC18BC9AB1906642
:100730009AB92093B0008093B1001092B300109248
:10074000B400539A239A1092EA011092E90182E0D0
:100750008093E7011092EB011092E8010895813037
:1007600011F48093EB011092EA011092E9011092CA
:10077000E80181E08093E701219A08951092EB014E
:100780001092EA011092E9011092E80182E0809350
:10079000E701219808958091E7010895813019F5C6
:1007A000662369F0161634F06E3FC9F06F3F09F00A
:1007B00043C00BC0613031F06230F1F50BC08FEFF8
:1007C00087BD06C080915B0107C017BC80915B01AB
:1007D00088BD30C080915C0187BD18BC2BC017BCA0
:1007E00080915C01F5CF662361F016162CF06E3F08
:1007F000A1F06F3F09F509C0613051F06230E1F4BA
:1008000013C08FEF8093B30013C080915D0107C0C8
:100810001092B30080915D010BC080915E018093C6
:10082000B3001092B40006C01092B30080915E0134
:100830008093B40081E0089580E0089583E0809380
:10084000E701219881E060E0A9DF82E060E0A6DFB7
:1008500008958091EB01813009F52091E9013091F3
:10086000EA018091E8019FE32835390770F48B3065
:1008700050F01092E701219881E060E08FDF82E084
:1008800060E08CDF0BC08F5F03C0882319F08150BC
:100890008093E8011092EA011092E9018091E7014A
:1008A00008951F920F920FB60F9211242F933F932A
:1008B0004F935F936F937F938F939F93AF93BF9368
:1008C000EF93FF938091EB01813011F58091E90165
:1008D0009091EA0101969093EA018093E9012DE459
:1008E0008D369207A8F08091E8018B3050F010927D
:1008F000E701219881E060E051DF82E060E04EDFB7
:1009000007C08F5F8093E8011092EA011092E9011D
:1009100080915601909157010196909357018093D1
:1009200056012EE08031920728F010925701109264
:100930005601C7DBFF91EF91BF91AF919F918F91CE
:100940007F916F915F914F913F912F910F900FBECB
:100950000F901F90189508959B01280F391FE2E012
:1009600020303E0710F081E0089520E030E00DC017
:10097000F901E80FF91FF2BDE1BDF89AA0B5FA013F
:10098000E20FF31FA0832F5F3F4F2617370781F732
:1009900080E008959B01280F391FE2E020303E07D8
:1009A00010F081E0089520E030E010C0F999FECF0A
:1009B000F901E80FF91FF2BDE1BDFA01E20FF31FE3
:1009C000E081E0BDFA9AF99A2F5F3F4F261737076B
:1009D00069F780E00895A0E0B0E0E0EFF4E077C5CB
:1009E000FE013596619171918091EE019091EF0138
:1009F000AF011AD02096E2E086C5AEE0B0E0E2E0BA
:100A0000F5E065C585E08C838B899C899A83898311
:100A10009E01295E3F4FCE0101966D897E89A90115
:100A200035D32E96E2E06FC5ACE0B0E0E9E1F5E049
:100A30003FC56C012B018A01FC011782168283815C
:100A400081FD03C02FEF3FEFB5C14E010894811C1B
:100A5000911C6FE3362EF6019381F20193FD85918F
:100A600093FF81912F01882309F4A1C1853239F4C4
:100A700093FD859193FF81912F01853221F490E0C0
:100A8000B6016DD4E8CFEE24FF2420E02032B0F48C
:100A90008B3269F08C3228F4803251F0833271F459
:100AA0000BC08D3239F0803349F421602CC02260B4
:100AB000246029C0286027C0206125C027FD2CC0E4
:100AC000382F30533A3098F426FF08C08E2D880F07
:100AD000E82EEE0CEE0CE80EE30E15C08F2D880FFD
:100AE000F82EFF0CFF0CF80EF30E20620CC08E32B5
:100AF00021F426FD5CC1206406C08C3611F4206808
:100B000002C0883649F4F20193FD859193FF8191EB
:100B10002F01882309F0BACF982F9554933018F0FD
:100B20009052933020F40C5F1F4F39820DC08336F2
:100B300031F0833771F0833509F054C01DC0F801DE
:100B4000808189830E5F1F4F540151E0652E712C07
:100B500011C0F801A080B18026FD03C06FEF7FEFC8
:100B600002C06E2D70E00E5F1F4FC5012C87ABD306
:100B70003C012C852F7712C0F801A080B18026FDA2
:100B800003C06FEF7FEF02C06E2D70E00E5F1F4F4E
:100B9000C5012C878DD33C012C85206823FF08C01C
:100BA0001DC080E290E0B6012C87D9D3FA942C8541
:100BB0008F2D90E068167906A0F310C0F50127FD8F
:100BC000859127FF81915F0190E0B6012C87C7D303
:100BD0002C85F110FA94089461087108611471046D
:100BE00069F7E2C0843611F0893649F527FF08C05D
:100BF000F80160817181828193810C5F1F4F0AC06F
:100C0000F80140815181BA01882777FD8095982F9E
:100C10000E5F1F4F4FE6B42EB22297FF09C090958A
:100C20008095709561957F4F8F4F9F4FF0E8BF2A59
:100C3000A4012AE030E0DAD3782E781842C0853754
:100C400031F43FEEB32EB2222AE030E023C099EF18
:100C5000B92EB2228F3661F0803720F4883509F042
:100C6000A6C012C0803739F0883709F0A0C005C08F
:100C700028E030E00FC020E1B22AB4FE02C084E0D8
:100C8000B82A20E130E006C0B4FE02C0E6E0BE2A89
:100C900020E132E0B7FE08C0F801608171818281F5
:100CA00093810C5F1F4F07C0F8016081718180E064
:100CB00090E00E5F1F4FA40199D3782E7818FFE7BC
:100CC000BF22B6FE0BC02EEFB2227E1438F4B4FE63
:100CD00007C0B2FC05C08FEEB82202C0A72C01C02D
:100CE000AE2C8B2DB4FE0DC0FE01E70DF11D9081E1
:100CF000903319F4E9EEBE2207C0A394B2FE04C0FB
:100D000002C0867809F0A3946B2CB3FC13C0B0FE2C
:100D10000EC0AF1410F0E72C0AC0E72CEF0CEA1855
:100D2000AF2C05C080E290E0B60119D3A394AF14B4
:100D3000C8F304C0AF1410F4FA1801C0FF2464FE15
:100D40000EC080E390E0B6010AD362FE1BC061FCD6
:100D500003C088E790E00EC088E590E00BC0862DC8
:100D6000867881F061FE02C08BE201C080E2B7FCB0
:100D70008DE290E0B601F3D205C080E390E0B601C9
:100D8000EED2EA947E14C8F37A94F401E70DF11DD3
:100D9000808190E0B601E3D27720B1F705C080E210
:100DA00090E0B601DCD2FA94FF20C9F754CEF601E8
:100DB00026813781C9012C96E1E196C320FD09C047
:100DC000FC0123FD05C022FF02C0738362835183AF
:100DD00040830895EF92FF920F931F9344FF02C048
:100DE00033E011C046FF02C034E00DC0DB01FC015E
:100DF000AA0FBB1FEE1FFF1F1094D1F76A0F7B1FB6
:100E00008E1F9F1F31E0660F771F881F991F31507B
:100E1000D1F77B018C01E20EF11C011D111DA8010F
:100E20009701B701CA011F910F91FF90EF900895AC
:100E3000EF92FF920F931F93CF93DF938C01C80122
:100E40004DD2EC0197FD07C020D20097C1F77E017B
:100E5000CE01B801B0D2CE01CDB7DEB7E6E04FC3C8
:100E6000A0E0B0E0E5E3F7E02AC3EC01062F7A0149
:100E7000122F34D28B3219F08D3241F410680150A8
:100E800009F459C0CE012AD297FD55C01D7F212FEC
:100E90002073B9F48033A9F40150C9F1CE011ED2F8
:100EA00097FD35C01260883711F0883541F4106421
:100EB000015069F1CE0112D299231CF428C016FF0B
:100EC0001061AA24BB246501282F2053283078F014
:100ED00014FD09C02A3058F016FF05C02F7D322FAF
:100EE0003151363018F0BE0166D20EC02750C6010F
:100EF000B501412F6FDF5B016C011260015051F0B1
:100F0000CE01ECD197FFE0CF11FD04C014C0AA249C
:100F1000BB24650117FF08C0D094C094B094A0947E
:100F2000A11CB11CC11CD11CC701B601A501212FF8
:100F300045DF81E001C080E0CDB7DEB7EAE0DBC28B
:100F4000A1E2B0E0E5EAF7E0B6C28C017A016901FE
:100F5000FE01319680E2DF011D928A95E9F720E0DB
:100F600030E050E090E040E04F0171E0672E712CDE
:100F7000F8018381F60183FD859183FF81916F01E3
:100F8000882309F47DC08E3519F42115310561F1EE
:100F9000A42FB0E0A217B30744F48D3549F18D3288
:100FA00021F4992329F491E020C0992309F4582FC2
:100FB000A82FA695A695A695F401EA0FF11D982FE6
:100FC0009770530102C0AA0CBB1C9A95E2F790815E
:100FD0009A299083851711F490E007C0851710F4C3
:100FE0008F5FE6CF8150E4CF41E02F5F3F4FC0CF0E
:100FF000992319F08E8180628E83442359F09E01DB
:101000002F5D3F4FFE013196808180958193E217DD
:10101000F307D1F7BB24B3944E010894811C911CB3
:10102000C80169A35BD169A197FD22C0E82FE695AD
:10103000E695E69594012E0F311DF901208130E0EF
:10104000AC014770507002C0359527954A95E2F77C
:1010500020FD03C0B801AFD10BC0E114F10419F0B9
:10106000D7018D937D016150BB246623C9F602C070
:10107000BB2031F4E114F10429F0F701108202C021
:10108000CC24DD24C601A196EEE031C2A1E0B0E09F
:10109000EBE4F8E00EC22C016B017A01FC0117822F
:1010A000168200E0DCC0812F90E0EFD0009719F0AD
:1010B000C201BEDED4C0153241F4F601B3FC359155
:1010C000B3FE31916F01353251F4C20107D197FD62
:1010D000D2C0181709F4C3C0B2016DD1D1C03A32E1
:1010E00011F010E006C0B3FC3591B3FE31916F01F1
:1010F00011E0AA240EC012606A2D70E080E090E03A
:1011000040E268DEA62EF601B3FC3591B3FE3191C4
:101110006F01232F20532A3070F311FD03C0AA243E
:10112000AA9403C0AA2009F4ABC0383619F03C36A3
:1011300089F409C0F601B3FC3591B3FE31916F011A
:10114000383641F418601460F601B3FC3591B3FEF3
:1011500031916F01332309F493C084E390E0632F4E
:1011600070E039839AD03981009709F489C0812FC2
:1011700010FF03C08824992407C0F7018080918064
:1011800042E050E0E40EF51E3E3649F4F20146819D
:10119000578160E070E0C401212F10DE60C033365B
:1011A00089F481FD02C0AA24A394C20197D097FDBF
:1011B00062C08114910419F0F40181934F01AA9443
:1011C000A1F74BC03B3551F4C2016A2DA401960131
:1011D000B7DE6C01009709F040C03AC0C201398304
:1011E00027DE398197FD47C03F3641F1303728F47B
:1011F000343611F1393621F524C0333719F035373B
:10120000F9F41AC0C2016AD03C0197FD0FC03DD06D
:10121000009721F0C301B201CED008C0811491041F
:1012200019F0F40161924F01AA9461F781149104BD
:10123000A1F0F401108211C0106203C0106101C05E
:101240001064C2016A2DA401212F0ADE882329F42B
:10125000F2018381807379F413C010FF0F5FF201F4
:10126000B380F601B3FC1591B3FE11916F01112308
:1012700009F019CF05C0002319F40FEF1FEF01C0CB
:1012800010E0C8012196E0E130C191110DC180321A
:1012900019F089508550D0F70895FC010590061685
:1012A00021F00020D9F7C00108953197CF010895AA
:1012B000FC010590615070400110D8F78095909521
:1012C0008E0F9F1F0895FC01615070400190011026
:1012D000D8F7809590958E0F9F1F0895CF93DF9339
:1012E000EC013B8130FF17C036FF09C03F7B3B83D9
:1012F0008E819F8101969F838E832A812BC032FF2E
:1013000011C0E881F9818081992787FD9095009728
:1013100029F430623B832FEF3FEF1DC03196F983F4
:10132000E88311C0EA85FB85CE01099597FF0BC0C4
:101330002B813FEF8F3F930711F080E201C080E1E6
:10134000822B8B83E8CF2E813F812F5F3F4F3F83DE
:101350002E83282F30E0C901DF91CF9108950F939C
:101360001F93CF93DF938C01EB018B8181FF1BC017
:1013700082FF0DC02E813F818C819D812817390706
:1013800064F4E881F9810193F983E88306C0E88574
:10139000F985802F0995009731F48E819F81019600
:1013A0009F838E8302C00FEF1FEFC801DF91CF91A3
:1013B0001F910F910895FB01238120FF13C026FD8B
:1013C00011C03FEF8F3F930769F0828320642F7D28
:1013D0002383268137812150304037832683282F6D
:1013E00030E002C02FEF3FEFC9010895FA01AA27AC
:1013F000283051F1203181F1E8946F936E7F6E5F58
:101400007F4F8F4F9F4FAF4FB1E03ED0B4E03CD005
:10141000670F781F891F9A1FA11D680F791F8A1FE8
:10142000911DA11D6A0F711D811D911DA11D20D04F
:1014300009F468943F912AE0269F11243019305D09
:101440003193DEF6CF010895462F4770405D4193FA
:10145000B3E00FD0C9F7F6CF462F4F70405D4A3347
:1014600018F0495D31FD4052419302D0A9F7EACF0F
:10147000B4E0A6959795879577956795BA95C9F73E
:1014800000976105710508959B01AC010A2E069431
:101490005795479537952795BA95C9F7620F731FEA
:1014A000841F951FA01D08959927882708952F92BE
:1014B0003F924F925F926F927F928F929F92AF92E4
:1014C000BF92CF92DF92EF92FF920F931F93CF9331
:1014D000DF93CDB7DEB7CA1BDB0B0FB6F894DEBFC8
:1014E0000FBECDBF09942A88398848885F846E84EE
:1014F0007D848C849B84AA84B984C884DF80EE8038
:10150000FD800C811B81AA81B981CE0FD11D0FB640
:10151000F894DEBF0FBECDBFED010895F894FFCF64
:101520006D3D25692C2569004F3A25640A004F3A24
:1015300025642C25640A00593D257500793D2575E3
:10154000005A3D2575007A3D2575004F3A25752CCA
:1015500025752C25752C25750A00433A25630A004C
:101560004F0A00450A0000000003000000002E039F
:041570004F03000025
:00000001FF
