:1000000019C033C032C031C030C02FC02EC02DC087
:100010002CC02BC02AC029C028C06AC626C025C053
:1000200024C023C078C521C020C01FC01EC01DC071
:100030001CC01BC011241FBECFEFD4E0DEBFCDBF5C
:1000400011E0A0E0B1E0E2EAFCE102C005900D920F
:10005000AE34B107D9F711E0AEE4B1E001C01D92B2
:10006000AB3EB107E1F730D08ACDCACFDF93CF9353
:10007000CDB7DEB7E4D723E531E080E090E065E07E
:1000800070E0A901E3D7809153018F3FB9F481E07B
:100090008093530185E38093540180E78093550159
:1000A00085E38093560180E78093570123E531E093
:1000B00080E090E065E070E0A90118D8CCD4AAD522
:1000C000EED3CF91DF910895DF93CF93CDB7DEB715
:1000D0002E970FB6F894DEBF0FBECDBFC7DF1D82CF
:1000E00088E591E09F838E831A8619861C861B867D
:1000F0001C821B821A82198283E590E023E530E09E
:10010000D9012C91217FFC012083789403C0000049
:1001100001C0000083E590E023E530E0D9012C9197
:100120002160FC012083889583E590E023E530E0A1
:10013000D9012C912E7FFC012083E1D3882309F47F
:10014000B2D680917A01882321F1BDD48887888531
:10015000882F90E08A30910561F08D30910549F04B
:100160008830910561F488E591E09F838E831D823C
:1001700010C08E819F81DC011C9281E08D838E8175
:100180009F812885FC0120838E819F8101969F831A
:100190008E838D81882309F4BACF88E591E09F830F
:1001A0008E831D8277D6813021F074D6823009F09B
:1001B000E7C28E819F81DC018C91882F90E08F3681
:1001C000910509F407C18037910504F5873591053C
:1001D00009F4B1C0883591056CF48235910509F4B4
:1001E0005FC28635910509F445C18734910509F44C
:1001F0006CC2ABC28A35910509F4D8C18D36910520
:1002000091F18935910509F457C19FC2863791054F
:1002100009F402C18737910564F48237910509F426
:1002200011C18337910509F4BDC08037910571F084
:100230008CC28937910509F47CC18A37910509F48C
:10024000F2C18737910509F484C07FC200D08DB711
:100250009EB7019620E031E0FC013183208326DB4C
:100260000F900F908CC22DB73EB7285030400FB67C
:10027000F8943EBF0FBE2DBF8DB79EB701962E815D
:100280003F81DC012D933C9326E031E0FC01338378
:1002900022839E01255F3F4FDC0115963C932E93F0
:1002A00014979E01275F3F4FFC0137832683A7D712
:1002B0002DB73EB7285F3F4F0FB6F8943EBF0FBE35
:1002C0002DBF8230910551F58B859C85982F81E05B
:1002D000692FFCD58823A9F089859A85982F82E01B
:1002E000692FF4D5882369F000D08DB79EB70196A9
:1002F00020E031E0DC012D933C93D8DA0F900F9091
:100300000CC000D08DB79EB7019623E031E0FC0110
:1003100031832083CBDA0F900F900CC000D08DB7C3
:100320009EB7019623E031E0DC012D933C93BEDAC9
:100330000F900F9024C23FD500D08DB79EB7019685
:1003400020E031E0FC0131832083B0DA0F900F9080
:1003500016C24DD5882369F400D08DB79EB701969B
:1003600023E031E0DC012D933C93A0DA0F900F9055
:1003700018C08091E101282F30E000D000D08DB767
:100380009EB701964EE051E0FC0151834083DC01B1
:1003900013963C932E93129789DA0F900F900F903B
:1003A0000F90EDC1FBD2282F30E000D000D08DB7E8
:1003B0009EB701964EE051E0FC0151834083DC0181
:1003C00013963C932E93129771DA0F900F900F9023
:1003D0000F90D5C100D000D000D08DB79EB7019648
:1003E00024E131E0FC01318320832B813C81DC015D
:1003F00013963C932E93129729813A81FC01358301
:10040000248354DA2DB73EB72A5F3F4F0FB6F894D6
:100410003EBF0FBE2DBFB3C172D2282F30E000D037
:1004200000D08DB79EB701964EE051E0DC014D93B0
:100430005C93FC013383228339DA0F900F900F9085
:100440000F909DC181E060E041D582E060E03ED543
:100450001C821B821A82198202D500D08DB79EB7EA
:10046000019620E031E0DC012D933C931FDA0F90E0
:100470000F9085C100D000D000D08DB79EB70196F7
:1004800024E131E0FC013183208321E030E0DC0114
:1004900013963C932E93129721E030E0FC013583B4
:1004A000248304DA2DB73EB72A5F3F4F0FB6F89486
:1004B0003EBF0FBE2DBF63C100D000D000D08DB7AE
:1004C0009EB701962E813F81DC012D933C932DE157
:1004D00031E0FC013383228324E531E0DC01159611
:1004E0003C932E9314978BD6EDB7FEB736960FB686
:1004F000F894FEBF0FBEEDBF8130910569F400D0C6
:100500008DB79EB7019620E031E0DC012D933C933E
:10051000CDD90F900F900CC000D08DB79EB701962B
:1005200023E031E0FC0131832083C0D90F900F908C
:1005300026C100D000D000D08DB79EB701962E8185
:100540003F81DC012D933C9322E231E0FC013383B7
:10055000228325E531E0DC0115963C932E93149718
:100560004ED6EDB7FEB736960FB6F894FEBF0FBE67
:10057000EDBF8130910569F400D08DB79EB701962B
:1005800020E031E0DC012D933C9390D90F900F9047
:100590000CC000D08DB79EB7019623E031E0FC017E
:1005A0003183208383D90F900F90E9C000D000D011
:1005B00000D08DB79EB701962E813F81DC012D932F
:1005C0003C9327E231E0FC013383228326E531E0CE
:1005D000DC0115963C932E93149711D6EDB7FEB718
:1005E00036960FB6F894FEBF0FBEEDBF8130910571
:1005F00069F400D08DB79EB7019620E031E0DC01B0
:100600002D933C9353D90F900F900CC000D08DB711
:100610009EB7019623E031E0FC013183208346D967
:100620000F900F90ACC000D000D000D08DB79EB717
:1006300001962E813F81DC012D933C932CE231E029
:10064000FC013383228327E531E0DC0115963C93DE
:100650002E931497D4D5EDB7FEB736960FB6F8940F
:10066000FEBF0FBEEDBF8130910569F400D08DB79C
:100670009EB7019620E031E0DC012D933C9316D922
:100680000F900F900CC000D08DB79EB7019623E05D
:1006900031E0FC013183208309D90F900F906FC0A6
:1006A00000D08DB79EB7019620E031E0DC012D939C
:1006B0003C93FCD80F900F9023E531E080E090E070
:1006C00065E070E0A90112D55AC080915401E82F6D
:1006D000F0E0FE87ED8780915501682F70E08091F2
:1006E0005601482F50E080915701282F30E08DB7F8
:1006F0009EB70A970FB6F8949EBF0FBE8DBF8DB7F9
:100700009EB70196A1E3B1E0FC01B183A083ED8522
:10071000FE85DC011396FC93EE931297DC0115968F
:100720007C936E931497FC0157834683DC011996E2
:100730003C932E931897BAD8EDB7FEB73A960FB6FA
:10074000F894FEBF0FBEEDBF1AC08E819F81DC0101
:100750008C91282F30E000D000D08DB79EB7019645
:1007600040E451E0FC0151834083DC0113963C934B
:100770002E9312979BD80F900F900F900F908EC0D2
:1007800089D3882309F0C5CC8E819F81FC018081AB
:10079000882F90E08F36910509F45AC08037910573
:1007A000E4F4883591056CF4863591050CF050C061
:1007B0008734910509F44CC08235910509F448C08D
:1007C00054C0893591050CF450C08B3591050CF45B
:1007D0003FC08D369105E1F148C0883791056CF432
:1007E00086379105ACF582379105D1F083379105B5
:1007F00079F18037910539F038C0895790408230BF
:10080000910598F525C000D08DB79EB7019620E0E0
:1008100031E0DC012D933C9349D80F900F903EC0FE
:1008200081E060E053D382E060E050D31C821B8201
:100830001A82198214D300D08DB79EB7019620E09A
:1008400031E0FC013183208331D80F900F9026C016
:1008500000D08DB79EB7019623E031E0DC012D93E7
:100860003C9324D80F900F9019C08E819F81FC017A
:100870008081282F30E000D000D08DB79EB7019640
:1008800040E451E0DC014D935C93FC01338322830F
:100890000DD80F900F900F900F903CCC3BCCDF9376
:1008A000CF93CDB7DEB78CE790E020E6FC01208344
:1008B0008BE790E0FC0110828AE790E027EAFC01D8
:1008C00020838AE790E02AE730E0F9012081206464
:1008D000FC01208384E290E024E230E0F9012081F1
:1008E0002160FC01208385E290E025E230E0F901FF
:1008F00020812E7FFC012083CF91DF910895DF932B
:10090000CF930F92CDB7DEB789E790E0FC018081ED
:1009100089838981882311F482E00BC089818C3717
:1009200010F480E006C08981883810F481E001C0AD
:1009300082E00F90CF91DF910895DF93CF93CDB7F1
:10094000DEB785E290E025E230E0F9012081216008
:10095000FC012083CF91DF910895DF93CF93CDB732
:10096000DEB785E290E025E230E0F90120812E7FBC
:10097000FC012083CF91DF910895DF93CF93CDB712
:10098000DEB785E290E025E230E0F901308121E038
:100990002327FC012083CF91DF910895DF93CF932C
:1009A0000F92CDB7DEB789E290E0FC0180818983A8
:1009B00089818470898389818695869589838981D7
:1009C0000F90CF91DF910895DF93CF930F92CDB722
:1009D000DEB780914E018F5F80934E015BD2898399
:1009E0008981882F90E081309105E1F08230910576
:1009F0001CF40097D9F02BC08230910521F0833090
:100A00009105E1F024C080914E01823010F495DF11
:100A10001EC080914E018A3010F49FDF18C01092E2
:100A20004E0115C08ADF10924E0111C080914E0117
:100A30008A3060F0A2DF10924E0109C080914E0111
:100A4000882329F09ADF10924E0101C000000F9018
:100A5000CF91DF910895DF93CF93CDB7DEB785ECCB
:100A600090E0FC01108284EC90E027E6FC012083FA
:100A700080EC90E022E0FC01208381EC90E028E90A
:100A8000FC01208382EC90E026E0FC012083CF91E2
:100A9000DF910895DF93CF930F92CDB7DEB78983AF
:100AA00080EC90E0FC018081882F90E08072907053
:100AB0000097B1F386EC90E02981FC0120830F9030
:100AC000CF91DF910895DF93CF930F92CDB7DEB72B
:100AD000198280917A018823C9F080917B01882F47
:100AE00090E084589E4FFC018081898380917B0136
:100AF0008F5F80937B0180917A01815080937A018E
:100B000080917B01853610F010927B0189810F90D6
:100B1000CF91DF9108951F920F920FB60F9211247B
:100B20002F938F939F93EF93FF93DF93CF9300D0F7
:100B3000CDB7DEB786EC90E0FC0180818A838A81A4
:100B40008823E9F080917A018436C8F490917B0182
:100B500080917A01890F89838981843618F089818F
:100B6000845689838981882F90E084589E4F2A81FA
:100B7000FC01208380917A018F5F80937A010F902E
:100B80000F90CF91DF91FF91EF919F918F912F91D6
:100B90000F900FBE0F901F901895DF93CF9300D04A
:100BA000CDB7DEB79A838983FFCFDF93CF93CDB7DD
:100BB000DEB728970FB6F894DEBF0FBECDBF9C837B
:100BC0008B837E836D8358874F838D819E819A832B
:100BD00089830AC089819A81FC0180815BDF8981D8
:100BE0009A8101969A83898329813A818D819E8198
:100BF000281B390B8F819885281739075CF38F8163
:100C0000988528960FB6F894DEBF0FBECDBFCF9162
:100C1000DF910895DF93CF93CDB7DEB780E890E002
:100C200022E8FC01208381E890E029E1FC01208397
:100C300086E890E02CEC30E0FC013183208388E8EA
:100C400090E025E030E0FC01318320838FE690E0E6
:100C500021E0FC01208384E490E023EAFC0120836E
:100C600085E490E021E0FC01208387E490E0FC0132
:100C7000108288E490E0FC0110828AE290E02AE28F
:100C800030E0F90120812066FC01208380EB90E0B8
:100C900023EAFC01208381EB90E021E0FC0120832A
:100CA00083EB90E0FC01108284EB90E0FC01108269
:100CB0008AE290E02AE230E0F90120812860FC011C
:100CC000208384E290E024E230E0F9012081286072
:100CD000FC0120831092E3011092E20182E08093F4
:100CE000E0011092E4011092E101CF91DF910895AB
:100CF0001F920F920FB60F9211242F933F934F9391
:100D00005F936F937F938F939F93AF93BF93EF9373
:100D1000FF93DF93CF93CDB7DEB78091E4018130AD
:100D200009F58091E2019091E30101969093E3012E
:100D30008093E2018091E2019091E30123E9893AF5
:100D4000920780F08091E1018B3018F01092E00161
:100D500009C08091E1018F5F8093E1011092E3016E
:100D60001092E20180914F01909150010196909371
:100D7000500180934F0180914F01909150012EE0DE
:100D80008031920728F01092500110924F011CDE22
:100D9000CF91DF91FF91EF91BF91AF919F918F9193
:100DA0007F916F915F914F913F912F910F900FBE67
:100DB0000F901F901895DF93CF93CDB7DEB781E0EA
:100DC0008093E4011092E3011092E2011092E1019C
:100DD00081E08093E00184E290E024E230E0F901D8
:100DE00020812260FC012083CF91DF910895DF9361
:100DF000CF93CDB7DEB78091E2019091E30127E870
:100E0000803F9207D0F48091E1018B3060F0109226
:100E1000E00184E290E024E230E0F90120812D7FBE
:100E2000FC01208317C08091E1018F5F8093E10175
:100E30001092E3011092E2010DC08091E10188233C
:100E400029F08091E10181508093E1011092E3014A
:100E50001092E2018091E001CF91DF910895DF933C
:100E6000CF93CDB7DEB71092E4011092E301109258
:100E7000E2011092E10182E08093E00184E290E0DF
:100E800024E230E0F90120812D7FFC012083CF9105
:100E9000DF910895DF93CF93CDB7DEB78091E00166
:100EA000CF91DF910895DF93CF93CDB7DEB783E085
:100EB0008093E00184E290E024E230E0F9012081B7
:100EC0002D7FFC012083CF91DF910895DF93CF9395
:100ED00000D00F92CDB7DEB78A836B8381E0898320
:100EE0008A81813009F053C08B81992787FD9095C5
:100EF000009799F0181619064CF02FEF8E3F9207C5
:100F0000C1F1EFEF8F3F9E07F1F03FC081309105B7
:100F100079F08230910511F138C087E490E02FEF2D
:100F2000FC01208388E490E02FEFFC01208380C047
:100F300087E490E020915401FC01208388E490E054
:100F4000FC01108275C087E490E0FC01108288E407
:100F500090E020915401FC0120836AC087E490E076
:100F600020915501FC01208388E490E0FC0110826F
:100F70005FC087E490E0FC01108288E490E020915B
:100F80005501FC012083000053C0198251C08B81A0
:100F9000992787FD9095009799F0181619064CF03F
:100FA000FFEF8E3F9F0769F12FEF8F3F920799F078
:100FB0003EC081309105D1F08230910569F137C092
:100FC00083EB90E02FEFFC01208384EB90E02FEF88
:100FD000FC0120832DC083EB90E020915601FC01A1
:100FE000208384EB90E0FC01108222C083EB90E030
:100FF000FC01108284EB90E020915601FC012083DB
:1010000017C083EB90E020915701FC01208384EB13
:1010100090E0FC0110820CC083EB90E0FC01108298
:1010200084EB90E020915701FC01208301C01982DC
:1010300089810F900F900F90CF91DF910895DF93EA
:10104000CF93CDB7DEB7CF91DF9108950F931F9364
:10105000DF93CF9300D000D000D0CDB7DEB79A8316
:1010600089837C836B835E834D8329813A818B8165
:101070009C81820F931F22E08030920710F081E064
:101080002AC000E010E020C081E490E0A80129819E
:101090003A81240F351FFC01318320838FE390E0D8
:1010A0002FE330E0F90120812160FC012083C80199
:1010B0002D813E81820F931F20E430E0F9012081D1
:1010C000FC0120830F5F1F4F98018B819C812817A3
:1010D0003907D0F280E026960FB6F894DEBF0FBE37
:1010E000CDBFCF91DF911F910F9108950F931F9363
:1010F000DF93CF9300D000D000D0CDB7DEB79A8376
:1011000089837C836B835E834D8329813A818B81C4
:101110009C81820F931F22E08030920710F081E0C3
:101120003DC000E010E033C08FE390E0FC0180811F
:10113000882F90E0827090700097B1F781E490E082
:10114000A80129813A81240F351FFC0131832083B6
:1011500080E490E098014D815E81240F351FF901F4
:101160002081FC0120838FE390E02FE330E0F90140
:1011700020812460FC0120838FE390E02FE330E0A6
:10118000F90120812260FC0120830F5F1F4F98012D
:101190008B819C812817390738F280E026960FB69C
:1011A000F894DEBF0FBECDBFCF91DF911F910F919D
:1011B00008951F93CF93DF93EC016A30710529F0F6
:1011C00060317105B9F40DC021962881822F90E01D
:1011D000C0970A9778F02D3269F02223A9F70AC048
:1011E00021961881812F90E00E94E80D892B11F43F
:1011F0001123B1F7CE01DF91CF911F9108958F9206
:101200009F92AF92BF92CF92DF92EF92FF920F9395
:101210001F93DF93CF9300D0CDB7DEB72B893C89E6
:10122000C9016C0189899A899A838983FE0175961F
:1012300000E010E04E010894811C911C8DC0953295
:1012400009F087C00894C11CD11CD6018C91882359
:1012500009F47FC0883509F45BC0893530F48434E3
:1012600019F1893409F075C01FC0893629F0883713
:1012700099F1843609F06DC052E0A52EB12CAE0E66
:10128000BF1EE080F180C9016AE070E00E94D908C9
:10129000FC019A8389838081882309F468C0CF0187
:1012A000B4014AE050E02EC042E0A42EB12CAE0EB4
:1012B000BF1EE080F180C9016AE070E00E94D90899
:1012C000FC019A8389838081882309F450C0CF016F
:1012D000B4014AE050E032C092E0A92EB12CAE0E2B
:1012E000BF1EE080F180C90160E170E00E94D90872
:1012F000FC019A83898380818823C9F1CF01B401DD
:1013000040E150E00E946E0CF701718360831EC0C3
:1013100082E0A82EB12CAE0EBF1EE080F180C90184
:1013200060E170E00E94D908FC019A838983808182
:101330008823E9F0CF01B40140E150E00E946E0C37
:10134000D7016D937D938D939C9313970F5F1F4FE0
:10135000F5010894C11CD11CD6019C91992339F048
:1013600029813A81D9018C91882309F068CFE981DC
:10137000FA818081882311F40FEF1FEFC8010F90CD
:101380000F90CF91DF911F910F91FF90EF90DF9021
:10139000CF90BF90AF909F908F9008954F925F92A3
:1013A0006F927F928F929F92AF92BF92CF92DF9275
:1013B000EF92FF920F931F93DF93CF9300D0CDB79F
:1013C000DEB77C014B016A01380114161506C4F41E
:1013D000FB0140E050E003C04F5F5F4F31968081DA
:1013E0008823D1F74C155D051CF0CC24DD2402C008
:1013F000C41AD50A21FF04C090E3A92EB12C03C062
:1014000080E2A82EB12C20FF03C000E010E044C011
:1014100000E010E02E010894411C511C1CC0BA824F
:10142000A982E114F10461F0D701ED91FC911197CB
:10143000A0828D919C91119701968D939C9306C0EB
:10144000C301B20141E050E00E94D5050F5F1F4F7C
:101450000894C108D1081C141D040CF31DC0898315
:101460001A82E114F10461F0D701ED91FC9111971A
:1014700080838D919C91119701968D939C9306C0CA
:10148000C301B20141E050E00E94D5050F5F1F4F3C
:101490000894811C911C04C02E010894411C511C0D
:1014A000F40180818823D9F61DC0BA82A982E11493
:1014B000F10461F0D701ED91FC911197A0828D911B
:1014C0009C91119701968D939C9306C0C301B40122
:1014D00041E050E00E94D5050F5F1F4F0894C108FE
:1014E000D10804C04E010894811C911C1C141D04D9
:1014F000E4F2C8010F900F90CF91DF911F910F91EF
:10150000FF90EF90DF90CF90BF90AF909F908F9023
:101510007F906F905F904F9008953F924F925F92AF
:101520006F927F928F929F92AF92BF92CF92DF92F3
:10153000EF92FF920F931F93DF93CF93CDB7DEB758
:101540002E970FB6F894DEBF0FBECDBF4C01380109
:101550004E2C3F2CD601FB016115710579F480E317
:101560008B831C82C401BE016D5F7F4FA8012E2DAD
:101570003F2D85010E94CE099C016EC0232B61F096
:101580004A30510549F477FF07C0F095E195FF4FC8
:1015900061E0C62ED12C02C0CC24DD241E868E0133
:1015A000025F1F4F542E452F36ECE32E3FEFF32EF4
:1015B000EA0EFB1E14C0CF01652D742F0E941B0E76
:1015C0008A30910514F08E0D9F1D805DD8018E9399
:1015D0008D01CF01652D742F0E941B0EFB013097EA
:1015E00051F7CD2861F16114710429F141FE23C046
:1015F0008DE290E09A8389838114910469F0D4018B
:10160000ED91FC9111978DE280838D919C911197C2
:1016100001968D939C9308C0C501BE016F5F7F4FFB
:1016200041E050E00E94D50508946108710821E06E
:10163000C22ED12C06C08DE2F80182938F01CC24FA
:10164000DD24C401B801A301242D332D85010E949E
:10165000CE099C012C0D3D1DC9012E960FB6F894A4
:10166000DEBF0FBECDBFCF91DF911F910F91FF90D5
:10167000EF90DF90CF90BF90AF909F908F907F9032
:101680006F905F904F903F9008952F923F924F92AE
:101690005F926F927F928F929F92AF92BF92CF9202
:1016A000DF92EF92FF920F931F93DF93CF9300D0BF
:1016B00000D000D0CDB7DEB71C012B013A013E832C
:1016C0002D8388249924CCC0853209F0A8C00894C1
:1016D000611C711CD3018C91882309F4C6C085322A
:1016E00009F49DC08D3219F0A0E0B0E00AC0089462
:1016F000611C711CA1E0B0E004C00894611C711C65
:10170000A260F30180818033C1F300E010E013C0D8
:10171000C80143E0880F991F4A95E1F7000F111F98
:10172000800F911F022F10E000531040080F191F67
:101730000894611C711CF3012081822F80538A3030
:1017400038F3233771F4ED81FE8160817181611579
:10175000710511F466E471E03296FE83ED83C201F7
:1017600058C02436B1F4ED81FE813296FE83ED83BC
:1017700072916291C2014AE050E021E030E07D01C7
:10178000F1E6CF2ED12C51010E948D0A880E991EB0
:1017900064C0293641F3283759F4ED81FE81329631
:1017A000FE83ED8372916291C20140E150E01FC05F
:1017B000283589F4ED81FE813296FE83ED837291A6
:1017C0006291C20140E150E020E030E07D01E1E4BF
:1017D000CE2ED12CD8CF253769F4ED81FE813296FB
:1017E000FE83ED8372916291C2014AE050E020E0F5
:1017F00030E0C5CF233689F5ED81FE813296FE8338
:10180000ED833297808189831A82C201BE016F5FA6
:101810007F4FA8019D0181010E94CE09B7CFD3015E
:101820008C918B831C824114510461F0D201ED91A3
:10183000FC91119780838D919C91119701968D93C6
:101840009C9308C0C101BE016D5F7F4F41E050E035
:101850000E94D5050894811C911C0894611C711C80
:10186000F3018081882309F02FCF4114510421F026
:10187000D201ED91FC911082C40126960FB6F89426
:10188000DEBF0FBECDBFCF91DF911F910F91FF90B3
:10189000EF90DF90CF90BF90AF909F908F907F9010
:1018A0006F905F904F903F902F900895DF93CF936C
:1018B000CDB7DEB7FE01359641915191A091E70178
:1018C000B091E80116968D919C91179760E070E0B9
:1018D0009F010E94450BCF91DF9108952F923F9277
:1018E0004F925F926F927F928F929F92AF92BF9230
:1018F000CF92DF92EF92FF920F931F93DF93CF93DC
:10190000CDB7DEB72C970FB6F894DEBF0FBECDBFB4
:1019100089879A877E836D8358874F834C01F401B2
:1019200081914F01282F30E03C872B87C9010E940D
:10193000D10D892BA1F78B859C858D9761F4F401DE
:1019400081914F01282F30E03C872B8781E090E088
:101950009C838B830DC0EB85FC85BB9739F4F40128
:1019600081914F01282F30E03C872B871C821B82FE
:101970008F819885009711F0409741F5EB85FC85A4
:10198000F09799F4F4018081883711F0883569F473
:10199000F4018181282F30E03C872B8782E090E0A2
:1019A000880E991EE0E1F0E00AC02F813885232BD4
:1019B00069F48B859C85C09729F0EAE0F0E0F88710
:1019C000EF8304C028E030E038872F838B819C812F
:1019D000892B49F44FEFE42E4FEFF42E4FEF042FF5
:1019E0004FE7142F05C0E12CF12C012D30E8132F07
:1019F000EF81F8851F01442437FC4094542CC80122
:101A0000B701A20191010E942F0E7A836983C80158
:101A1000B701A20191010E942F0E79018A01AA2427
:101A2000BB246501662477248B859C85C0978A300A
:101A3000910518F49C878B8718C08B859C850E9424
:101A4000C10D892B09F44EC08B859C850E94DE0D4B
:101A5000892B19F487E590E002C087E390E02B859D
:101A60003C85281B390B3C872B878B859C85EF8118
:101A7000F8858E179F07B4F5FFEF6F16FFEF7F060F
:101A800049F1EA14FB040C051D0560F0AE14BF0417
:101A9000C006D10659F42B853C8589819A8182172D
:101AA000930724F466246A94762C14C0C601B50109
:101AB000A20191010E94FC0DEB85FC855F01CC2405
:101AC000B7FCC094DC2CA60EB71EC81ED91E21E0A0
:101AD000622E712CF40181914F01282F30E03C8758
:101AE0002B87A2CF77FE13C08B819C81892B49F471
:101AF0009FEFA92E9FEFB92E9FEFC92E9FE7D92EFA
:101B000012C0A12CB12CC12C80E8D82E0CC0EB81C6
:101B1000FC81EF2B41F0D094C094B094A094A11C10
:101B2000B11CC11CD11C2D813E81232B69F067287B
:101B300021F094012150304003C089859A859C0191
:101B4000ED81FE8131832083B501C6012C960FB64D
:101B5000F894DEBF0FBECDBFCF91DF911F910F91E3
:101B6000FF90EF90DF90CF90BF90AF909F908F90BD
:101B70007F906F905F904F903F902F9008950E94BC
:101B8000CD059C01815690404A9738F040E050E0E6
:101B9000215430402A31310510F441E050E0CA01AF
:101BA0000895AC010997059728F020E030E0403215
:101BB000510511F421E030E0C901089520E030E042
:101BC000815490404A9710F421E030E0C901089513
:101BD0009C01C0970A9760F0C90181549040069714
:101BE00038F040E050E0215630402630310510F406
:101BF00041E050E0CA010895629FD001739FF00157
:101C0000829FE00DF11D649FE00DF11D929FF00D8C
:101C1000839FF00D749FF00D659FF00D9927729FC3
:101C2000B00DE11DF91F639FB00DE11DF91FBD014E
:101C3000CF0111240895AA1BBB1B51E107C0AA1FA5
:101C4000BB1FA617B70710F0A61BB70B881F991F5D
:101C50005A95A9F780959095BC01CD010895A1E210
:101C60001A2EAA1BBB1BFD010DC0AA1FBB1FEE1F16
:101C7000FF1FA217B307E407F50720F0A21BB30B61
:101C8000E40BF50B661F771F881F991F1A9469F7DD
:101C900060957095809590959B01AC01BD01CF0139
:021CA0000895A5
:101CA2004F0A00450A006D3D25692C2569004F3A0F
:101CB20025640A004F3A25642C25640A00593D2503
:101CC2006900793D2569005A3D2569007A3D2569FB
:101CD200004F3A25752C25752C25752C25750A0083
:0E1CE200433A25630A00286E756C6C290000D9
:00000001FF
