:1000000019C033C032C031C030C02FC02EC02DC087
:100010002CC02BC02AC029C028C0E5C326C025C0DB
:1000200024C023C0EDC221C020C01FC01EC01DC0FF
:100030001CC01BC011241FBECFEFD4E0DEBFCDBF5C
:1000400011E0A0E0B1E0E0EEF3E102C005900D9216
:10005000AE34B107D9F711E0AEE4B1E001C01D92B2
:10006000AA3EB107E1F774D029C9CACF80E68093D0
:100070007C0010927B00EAE7F0E087EA80838081D1
:1000800080648083209A289808958091790088233D
:1000900041F08C3710F480E00895883810F481E046
:1000A000089582E0089580914E018F5F80934E0104
:1000B00042D3813089F0813088F0823019F083306A
:1000C00011F517C080914E01823010F4289A0895DE
:1000D0008A3060F428980895289A08C080914E01CB
:1000E0008A3088F085B191E0892785B910924E0158
:1000F000089580914E01882331F085B191E08927E0
:1001000085B910924E010895B3D380E090E065E088
:1001100070E043E551E0ADD3809153018F3FA1F4EE
:1001200081E08093530195E39093540180E780939D
:100130005501909356018093570180E090E065E06F
:1001400070E043E551E0B3D32BD29ED28FDF089508
:100150002F923F924F925F926F927F928F929F92D7
:10016000AF92BF92CF92DF92FF920F931F93DF93D4
:10017000CF9300D000D0CDB7DEB7C6DF1A82198288
:100180001C821B8283B7817F83BF789458E5852EBC
:1001900051E0952E4AE3242E41E0342E35E5632EBE
:1001A00031E0732E23E4A22E21E0B22E90E4C92E7A
:1001B00091E0D92E81E0482E512C08E511E0FF2472
:1001C00083B7816083BF889583B78E7F83BF5DDFF0
:1001D000882309F4B3D280917A01882379F0F7D18A
:1001E0008A3029F08D3019F0883029F4E6CFD80113
:1001F0001C92FF24F394F80181938F01FF2001F3F7
:100200009AD2813021F097D2823009F06EC180916C
:1002100058018F3609F484C08037C0F4873509F45B
:1002200066C0883550F4823509F414C1863509F466
:1002300099C0873409F04CC11DC18A3509F4CFC07B
:100240008D36E9F0893509F043C1A3C0863709F43A
:100250007AC0873750F4823709F477C1833709F4BD
:100260004DC0803709F034C177C1893709F4A4C083
:100270008A3709F4C7C0873709F02AC13AC0EDB7F9
:10028000FEB738970FB6F894FEBF0FBEEDBF31969C
:10029000ADB7BEB712969C928E92119720E031E0D6
:1002A0003383228383E090E08C0F9D1F95838483AA
:1002B000A1E0B0E0AC0FBD1FB783A6833FD3EDB77D
:1002C000FEB738960FB6F894FEBF0FBEEDBF02978B
:1002D00009F0B8C081E06B8136D2882309F444C1AB
:1002E00082E0698130D2882309F43EC135C1FDD155
:1002F00026C106D2882309F022C1A4C089B1847026
:1003000000D000D0EDB7FEB7319628E031E0ADB7B0
:10031000BEB712963C932E93119786958695E3C0AF
:1003200000D000D000D0EDB7FEB731962EE031E01E
:10033000ADB7BEB712963C932E93119713821282DB
:100340001582148221C0A1DE00D000D0EDB7FEB727
:10035000319628E031E0ADB7BEB712963C932E93AC
:100360001197C1C000D000D000D0EDB7FEB73196D4
:100370002EE031E0ADB7BEB712963C932E931197A5
:10038000538242825582448230D68DB79EB70696FC
:1003900099C000D000D000D0EDB7FEB73196ADB710
:1003A000BEB712969C928E92119727E131E033836B
:1003B000228384E591E038C000D000D000D0EDB7B2
:1003C000FEB73196ADB7BEB712969C928E9211973A
:1003D0002CE131E0338322837582648227C000D010
:1003E00000D000D0EDB7FEB73196ADB7BEB71296CC
:1003F0009C928E92119721E231E03383228386E52D
:1004000091E012C000D000D000D0EDB7FEB7319619
:10041000ADB7BEB712969C928E92119726E231E04C
:100420003383228387E591E09583848387D2ADB7B8
:10043000BEB716960FB6F894BEBF0FBEADBF0197FC
:1004400009F47DC000D0ADB7BEB71296BC92AE9293
:1004500011978FC000D0EDB7FEB7D282C182C5D54B
:100460000F900F9080E090E065E070E043E551E090
:100470001ED2A3CE2DB73EB72A5030400FB6F89407
:100480003EBF0FBE2DBFEDB7FEB731962BE231E078
:10049000ADB7BEB712963C932E931197809154013D
:1004A0008283138280915501848315828091560145
:1004B00086831782809157018087118696D58DB7E4
:1004C0009EB70A960FB6F8949EBF0FBE8DBF75CE2D
:1004D00000D000D0EDB7FEB73196ADB7BEB71296DB
:1004E0003C922E921197828354C025D1882309F023
:1004F00064CE909158019F36B9F1903780F49835C9
:1005000038F4963588F5973479F19235B1F52CC0E9
:10051000993598F19B3540F19D3679F525C098378E
:1005200048F4963708F5923781F09337E9F0903721
:1005300021F505C0892F89578230F8F415C000D005
:10054000EDB7FEB7D282C18214C081E060E0FBD07B
:1005500082E060E0F8D0E6D000D0ADB7BEB712962A
:10056000DC92CE92119705C000D0EDB7FEB7B282F3
:10057000A1823BD50F900F9020CE00D000D0EDB7D8
:10058000FEB73196ADB7BEB712963C922E92119738
:10059000928313822AD50F900F900F900F900DCE5B
:1005A0001092C5008FE58093C40082E08093C00064
:1005B00088E98093C10086E08093C2000895982F57
:1005C0008091C00085FFFCCF9093C6000895909164
:1005D0007A01992311F4E0E011C080917B01E82FAA
:1005E000F0E0E458FE4FE0818F5F80937B019150F3
:1005F00090937A01853610F010927B018E2F08952A
:100600001F920F920FB60F9211248F939F93EF9327
:10061000FF939091C600992389F080917A018436E6
:1006200068F4E0917B01E80FE43608F0E456F0E06E
:10063000E458FE4F90838F5F80937A01FF91EF9192
:100640009F918F910F900FBE0F901F901895FFCF25
:10065000EF92FF920F931F93CF93DF937B018A0159
:10066000C0E0D0E006C0F701EC0FFD1F8081A7DFDE
:100670002196C017D107BCF3C801DF91CF911F911C
:100680000F91FF90EF90089582E88093800089E1B8
:10069000809381008CEC90E090938700809386009B
:1006A00085E090E0909389008093880091E090939A
:1006B0006F0023EA24BD95BD17BC18BC8AB18066C3
:1006C0008AB92093B0009093B1001092B3001092B9
:1006D000B400539A239A1092E2011092E10182E051
:1006E0008093E0011092E301089581E08093E3019B
:1006F0001092E2011092E1018093E001219A0895A5
:100700008091E1019091E201805A9C4820F410927E
:10071000E001219804C01092E2011092E101809161
:10072000E00108951092E2011092E10182E08093CD
:10073000E001219808958091E001089583E080937D
:10074000E00121980895813019F5662369F01616A5
:1007500034F06E3FC9F06F3F09F043C00BC0613009
:1007600031F06230F1F50BC08FEF87BD06C080918C
:10077000540107C017BC8091540188BD30C08091DE
:10078000550187BD18BC2BC017BC80915501F5CF12
:10079000662361F016162CF06E3FA1F06F3F09F54D
:1007A00009C0613051F06230E1F413C08FEF8093E3
:1007B000B30013C08091560107C01092B30080911E
:1007C00056010BC0809157018093B3001092B40082
:1007D00006C01092B300809157018093B40081E06D
:1007E000089580E008951F920F920FB60F92112482
:1007F0002F933F934F935F936F937F938F939F9329
:10080000AF93BF93EF93FF938091E301813071F435
:100810008091E1019091E20101969093E201809331
:10082000E101895A934910F01092E00180914F0143
:100830009091500101969093500180934F01805107
:100840009E4028F01092500110924F012CDCFF9135
:10085000EF91BF91AF919F918F917F916F915F9138
:100860004F913F912F910F900FBE0F901F901895B1
:100870000895DC01CB018A0F9B1F8050924010F03D
:1008800081E0089520E030E00DC0C9018A0F9B1F70
:1008900092BD81BDF89A80B5FA01E20FF31F808303
:1008A0002F5F3F4F2617370780F380E00895DC0164
:1008B000CB018A0F9B1F8050924010F081E0089579
:1008C00020E030E010C0F999FECFC9018A0F9B1FCC
:1008D00092BD81BDFA01E20FF31F808180BDFA9ABB
:1008E000F99A2F5F3F4F2617370768F380E0089586
:1008F0001F93CF93DF93EC016A30710529F06031CB
:100900007105B9F40DC021962881822F90E0C0971F
:100910000A9778F02D3269F02223A9F70AC02196B0
:100920001881812F90E00E948709892B11F41123EF
:10093000B1F7CE01DF91CF911F9108958F929F92D1
:10094000AF92BF92CF92DF92EF92FF920F931F93DD
:10095000DF93CF9300D0CDB7DEB72B893C89C90197
:100960006C0189899A899A838983FE01759600E0D2
:1009700010E04E010894811C911C8DC0953209F045
:1009800087C00894C11CD11CD6018C91882309F41E
:100990007FC0883509F45BC0893530F4843419F19F
:1009A000893409F075C01FC0893629F0883799F15C
:1009B000843609F06DC052E0A52EB12CAE0EBF1EDC
:1009C000E080F180C9016AE070E00E947804FC01D7
:1009D0009A8389838081882309F468C0CF01B40198
:1009E0004AE050E02EC042E0A42EB12CAE0EBF1E55
:1009F000E080F180C9016AE070E00E947804FC01A7
:100A00009A8389838081882309F450C0CF01B4017F
:100A10004AE050E032C092E0A92EB12CAE0EBF1ECB
:100A2000E080F180C90160E170E00E947804FC017F
:100A30009A83898380818823C9F1CF01B40140E181
:100A400050E00E940D08F701718360831EC082E0B0
:100A5000A82EB12CAE0EBF1EE080F180C90160E16E
:100A600070E00E947804FC019A8389838081882346
:100A7000E9F0CF01B40140E150E00E940D08D70138
:100A80006D937D938D939C9313970F5F1F4FF5018B
:100A90000894C11CD11CD6019C91992339F029815D
:100AA0003A81D9018C91882309F068CFE981FA81D4
:100AB0008081882311F40FEF1FEFC8010F900F9072
:100AC000CF91DF911F910F91FF90EF90DF90CF902A
:100AD000BF90AF909F908F9008954F925F926F92CA
:100AE0007F928F929F92AF92BF92CF92DF92EF92BE
:100AF000FF920F931F93DF93CF9300D0CDB7DEB754
:100B00007C014B016A01380114161506C4F4FB017F
:100B100040E050E003C04F5F5F4F319680818823F3
:100B2000D1F74C155D051CF0CC24DD2402C0C41A9D
:100B3000D50A21FF04C090E3A92EB12C03C080E2A6
:100B4000A82EB12C20FF03C000E010E044C000E05C
:100B500010E02E010894411C511C1CC0BA82A982CD
:100B6000E114F10461F0D701ED91FC911197A0829D
:100B70008D919C91119701968D939C9306C0C30112
:100B8000B20141E050E00E9428030F5F1F4F08941C
:100B9000C108D1081C141D040CF31DC089831A82DE
:100BA000E114F10461F0D701ED91FC91119780837C
:100BB0008D919C91119701968D939C9306C0C301D2
:100BC000B20141E050E00E9428030F5F1F4F0894DC
:100BD000811C911C04C02E010894411C511CF4017D
:100BE00080818823D9F61DC0BA82A982E114F1045C
:100BF00061F0D701ED91FC911197A0828D919C91AC
:100C0000119701968D939C9306C0C301B40141E0F6
:100C100050E00E9428030F5F1F4F0894C108D108BD
:100C200004C04E010894811C911C1C141D04E4F2A4
:100C3000C8010F900F90CF91DF911F910F91FF90FE
:100C4000EF90DF90CF90BF90AF909F908F907F906C
:100C50006F905F904F9008953F924F925F926F9286
:100C60007F928F929F92AF92BF92CF92DF92EF923C
:100C7000FF920F931F93DF93CF93CDB7DEB72E97DD
:100C80000FB6F894DEBF0FBECDBF4C0138014E2C1D
:100C90003F2CD601FB016115710579F480E38B834C
:100CA0001C82C401BE016D5F7F4FA8012E2D3F2D18
:100CB00085010E946D059C016EC0232B61F04A30B6
:100CC000510549F477FF07C0F095E195FF4F61E0CA
:100CD000C62ED12C02C0CC24DD241E868E01025FDC
:100CE0001F4F542E452F36ECE32E3FEFF32EEA0E26
:100CF000FB1E14C0CF01652D742F0E94BA098A30E3
:100D0000910514F08E0D9F1D805DD8018E938D018D
:100D1000CF01652D742F0E94BA09FB01309751F75E
:100D2000CD2861F16114710429F141FE23C08DE2E7
:100D300090E09A8389838114910469F0D401ED9144
:100D4000FC9111978DE280838D919C911197019672
:100D50008D939C9308C0C501BE016F5F7F4F41E03A
:100D600050E00E94280308946108710821E0C22E17
:100D7000D12C06C08DE2F80182938F01CC24DD24B2
:100D8000C401B801A301242D332D85010E946D05F6
:100D90009C012C0D3D1DC9012E960FB6F894DEBFA7
:100DA0000FBECDBFCF91DF911F910F91FF90EF90BC
:100DB000DF90CF90BF90AF909F908F907F906F907B
:100DC0005F904F903F9008952F923F924F925F9285
:100DD0006F927F928F929F92AF92BF92CF92DF924B
:100DE000EF92FF920F931F93DF93CF9300D000D029
:100DF00000D0CDB7DEB71C012B013A013E832D8315
:100E000088249924CCC0853209F0A8C00894611CBC
:100E1000711CD3018C91882309F4C6C0853209F472
:100E20009DC08D3219F0A0E0B0E00AC00894611CAA
:100E3000711CA1E0B0E004C00894611C711CA260A8
:100E4000F30180818033C1F300E010E013C0C801DA
:100E500043E0880F991F4A95E1F7000F111F800F9B
:100E6000911F022F10E000531040080F191F089423
:100E7000611C711CF3012081822F80538A3038F36A
:100E8000233771F4ED81FE816081718161157105F7
:100E900011F466E471E03296FE83ED83C20158C01E
:100EA0002436B1F4ED81FE813296FE83ED8372919A
:100EB0006291C2014AE050E021E030E07D01F1E6BC
:100EC000CF2ED12C51010E942C06880E991E64C091
:100ED000293641F3283759F4ED81FE813296FE839D
:100EE000ED8372916291C20140E150E01FC028354C
:100EF00089F4ED81FE813296FE83ED8372916291D9
:100F0000C20140E150E020E030E07D01E1E4CE2E7E
:100F1000D12CD8CF253769F4ED81FE813296FE833E
:100F2000ED8372916291C2014AE050E020E030E02E
:100F3000C5CF233689F5ED81FE813296FE83ED83A0
:100F40003297808189831A82C201BE016F5F7F4F11
:100F5000A8019D0181010E946D05B7CFD3018C913D
:100F60008B831C824114510461F0D201ED91FC91FC
:100F7000119780838D919C91119701968D939C93ED
:100F800008C0C101BE016D5F7F4F41E050E00E948B
:100F900028030894811C911C0894611C711CF301A6
:100FA0008081882309F02FCF4114510421F0D20110
:100FB000ED91FC911082C40126960FB6F894DEBF25
:100FC0000FBECDBFCF91DF911F910F91FF90EF909A
:100FD000DF90CF90BF90AF909F908F907F906F9059
:100FE0005F904F903F902F900895DF93CF93CDB7B0
:100FF000DEB7FE01359641915191A091E601B09185
:10100000E70116968D919C91179760E070E09F0123
:101010000E94E406CF91DF9108952F923F924F9264
:101020005F926F927F928F929F92AF92BF92CF9278
:10103000DF92EF92FF920F931F93DF93CF93CDB781
:10104000DEB72C970FB6F894DEBF0FBECDBF8987F1
:101050009A877E836D8358874F834C01F401819179
:101060004F01282F30E03C872B87C9010E9470096F
:10107000892BA1F78B859C858D9761F4F401819173
:101080004F01282F30E03C872B8781E090E09C8344
:101090008B830DC0EB85FC85BB9739F4F4018191FE
:1010A0004F01282F30E03C872B871C821B828F81C9
:1010B0009885009711F0409741F5EB85FC85F097F6
:1010C00099F4F4018081883711F0883569F4F401CE
:1010D0008181282F30E03C872B8782E090E0880ECA
:1010E000991EE0E1F0E00AC02F813885232B69F4D6
:1010F0008B859C85C09729F0EAE0F0E0F887EF83C4
:1011000004C028E030E038872F838B819C81892BB5
:1011100049F44FEFE42E4FEFF42E4FEF042F4FE73B
:10112000142F05C0E12CF12C012D30E8132FEF8195
:10113000F8851F01442437FC4094542CC801B701A2
:10114000A20191010E94CE097A836983C801B70187
:10115000A20191010E94CE0979018A01AA24BB242F
:101160006501662477248B859C85C0978A3091051C
:1011700018F49C878B8718C08B859C850E9460091A
:10118000892B09F44EC08B859C850E947D09892B93
:1011900019F487E590E002C087E390E02B853C8559
:1011A000281B390B3C872B878B859C85EF81F88525
:1011B0008E179F07B4F5FFEF6F16FFEF7F0649F11B
:1011C000EA14FB040C051D0560F0AE14BF04C00654
:1011D000D10659F42B853C8589819A818217930722
:1011E00024F466246A94762C14C0C601B501A201C9
:1011F00091010E949B09EB85FC855F01CC24B7FC23
:10120000C094DC2CA60EB71EC81ED91E21E0622E8B
:10121000712CF40181914F01282F30E03C872B87FE
:10122000A2CF77FE13C08B819C81892B49F49FEF5D
:10123000A92E9FEFB92E9FEFC92E9FE7D92E12C07E
:10124000A12CB12CC12C80E8D82E0CC0EB81FC81E4
:10125000EF2B41F0D094C094B094A094A11CB11C89
:10126000C11CD11C2D813E81232B69F0672821F000
:1012700094012150304003C089859A859C01ED81FD
:10128000FE8131832083B501C6012C960FB6F894F8
:10129000DEBF0FBECDBFCF91DF911F910F91FF90A9
:1012A000EF90DF90CF90BF90AF909F908F907F9006
:1012B0006F905F904F903F902F9008950E9427036A
:1012C0009C01815690404A9738F040E050E021540C
:1012D00030402A31310510F441E050E0CA01089550
:1012E000AC010997059728F020E030E04032510525
:1012F00011F421E030E0C901089520E030E081548C
:1013000090404A9710F421E030E0C90108959C0113
:10131000C0970A9760F0C90181549040069738F051
:1013200040E050E0215630402630310510F441E0D5
:1013300050E0CA010895629FD001739FF001829F1F
:10134000E00DF11D649FE00DF11D929FF00D839F54
:10135000F00D749FF00D659FF00D9927729FB00DF1
:10136000E11DF91F639FB00DE11DF91FBD01CF0104
:1013700011240895AA1BBB1B51E107C0AA1FBB1F64
:10138000A617B70710F0A61BB70B881F991F5A9511
:10139000A9F780959095BC01CD010895A1E21A2E80
:1013A000AA1BBB1BFD010DC0AA1FBB1FEE1FFF1F09
:1013B000A217B307E407F50720F0A21BB30BE40B59
:1013C000F50B661F771F881F991F1A9469F76095A0
:1013D0007095809590959B01AC01BD01CF0108955A
:1013E0006D3D25692C2569004F3A25640A004F3A66
:1013F00025642C25640A00593D256900793D25693D
:10140000005A3D2569007A3D2569004F3A25752C23
:1014100025752C25752C25750A00433A25630A008D
:0E1420004F0A00450A00286E756C6C2900000A
:00000001FF
